:100000000C9434000C943E000C943E000C943E0082
:100010000C943E000C943E000C943E000C943E0068
:100020000C943E000C943E000C943E000C943E0058
:100030000C943E000C943E000C943E000C943E0048
:100040000C943E000C943E000C943E000C943E0038
:100050000C943E000C943E000C943E000C943E0028
:100060000C943E000C943E0011241FBECFEFD8E04C
:10007000DEBFCDBF0E9440000C945F000C940000D6
:10008000259A87E085B951E033B183B193B1869564
:100090008170282F252792FB992790F9892F852792
:1000A00045B1932F91709527322F382B93238223BC
:1000B000892B8295880F807E842B85B9E5CFF894B3
:0200C000FFCF70
:00000001FF
